:020000040800F2
:10000000008001203D0300088D0300088D030008D7
:100010008D0300088D0300088D0300080000000018
:100020000000000000000000000000008D03000838
:100030008D030008000000008D0300088D030008F8
:10004000000000008D0300088D0300088D030008E8
:100050008D0300088D0300088D0300088D03000840
:100060008D0300088D0300088D03000800000000C8
:100070000000000000000000000000000000000080
:1000800000000000000000008D03000800000000D8
:100090000000000000000000000000008D030008C8
:1000A0008D0300088D0300088D0300088D030008F0
:1000B0008D0300088D0300088D0300088D030008E0
:1000C0008D0300088D0300088D0300088D030008D0
:1000D0008D0300088D0300088D0300080000000058
:1000E0008D0300088D0300088D0300080000000048
:1000F0000000000000000000000000000000000000
:10010000000000008D0300088D0300088D03000827
:1001100000000000000000000000000000000000DF
:1001200000000000000000000000000000000000CF
:1001300000000000000000000000000000000000BF
:100140000000000000000000000000008D03000817
:100150000000000000000000000000008D03000807
:100160008D0300088D03000800000000000000005F
:10017000000000000000000000000000000000007F
:10018000000000008D0300080000000000000000D7
:040190008D030008D3
:1001940010B5054C237833B9044B13B10448AFF3BD
:1001A40000800123237010BD000000200000000027
:1001B4003405000808B5034B1BB103490348AFF3EA
:1001C400008008BD00000000040000203405000881
:1001D40080B582B000AF0123FB7100F041F800F05C
:1001E4005DF80821114800F08DF80346002B04D176
:1001F40000F020F8FB790133FB71FB7903F0010374
:10020400DBB2002B08D100F015F801224FF4007185
:10021400074800F05DF8E4E700F00CF800224FF422
:100224000071034800F054F8DBE700BF000402400B
:100234000008024080B483B000AF00237B6002E07A
:100244007B6801337B607B68044A9342F8D900BF22
:1002540000BF0C37BD465DF8047B70471FA1070043
:1002640080B582B000AF0121042000F01DF94FF4E5
:1002740000733B6001233B7102237B710023BB713C
:100284000223FB713B461946034800F07EF800BF89
:100294000837BD4680BD00BF0008024080B582B06B
:1002A40000AF0121022000F0FFF808233B60002387
:1002B4003B7102237B710123FB713B4619460348C2
:1002C40000F063F800BF0837BD4680BD000402405B
:1002D40080B483B000AF78600B467B8013467B709C
:1002E4007B78012B02D17B687A881A837B78002B78
:1002F40002D17B687A885A8300BF0C37BD465DF80B
:10030400047B704780B485B000AF78600B467B8077
:100314000023FB737B681A697B881340002B02D08F
:100324000123FB7301E00023FB73FB7B18461437A6
:10033400BD465DF8047B70470D488546AFF30080E9
:100344000C480D490D4A002302E0D458C45004332C
:10035400C4188C42F9D30A4A0A4C002301E0136002
:100364000432A242FBD300F0BFF8FFF731FFFEE7EF
:100374000080012000000020000000205405000837
:10038400000000201C000020FEE780B487B000AF0E
:100394007860396000237B6100233B610023FB60AC
:1003A40000237B6176E001227B6902FA03F33B615F
:1003B4003B681B683A691340FB60FA683B699A42E0
:1003C40065D17B681A687B695B00032101FA03F33A
:1003D400DB431A407B681A607B681A683B681B79A8
:1003E40019467B695B0001FA03F31A437B681A60C0
:1003F4003B681B79012B03D03B681B79022B2ED160
:100404007B689A687B695B00032101FA03F3DB4391
:100414001A407B689A607B689A683B685B791946E6
:100424007B695B0001FA03F31A437B689A607B687B
:100434005A687B699BB2194601238B40DB431A40FF
:100444007B685A607B685B683A68927911467A697E
:1004540092B201FA02F292B21A437B685A607B6844
:10046400DA687B699BB25B00032101FA03F3DB4387
:100474001A407B68DA607B68DA683B68DB79194686
:100484007B695B0001FA03F31A437B68DA607B69DA
:1004940001337B617B690F2B85D900BF1C37BD46B7
:1004A4005DF8047B7047000080B483B000AF7860CF
:1004B4000B46FB70FB78002B06D00A4B1A6B0949DC
:1004C4007B6813430B6306E0064B1A6B7B68DB43C4
:1004D400044913400B6300BF0C37BD465DF8047B31
:1004E400704700BF0038024070B50D4D0D4C641BC1
:1004F400A4100026A64209D10B4D0C4C00F018F8AC
:10050400641BA4100026A64205D170BD55F8043B17
:1005140098470136EEE755F8043B98470136F2E771
:100524004C0500084C0500084C050008500500085F
:10053400F8B500BFF8BC08BC9E467047F8B500BFCC
:08054400F8BC08BC9E4670479C
:04054C00B9010008E9
:040550009501000809
:040000050800033DAF
:00000001FF
